{
  "abi": [
    {
      "type": "constructor",
      "inputs": [
        {
          "name": "_deploymentFee",
          "type": "uint256",
          "internalType": "uint256"
        }
      ],
      "stateMutability": "nonpayable"
    },
    {
      "type": "function",
      "name": "checkPaymentStatus",
      "inputs": [
        {
          "name": "user",
          "type": "address",
          "internalType": "address"
        }
      ],
      "outputs": [
        {
          "name": "",
          "type": "bool",
          "internalType": "bool"
        }
      ],
      "stateMutability": "view"
    },
    {
      "type": "function",
      "name": "deploymentFee",
      "inputs": [],
      "outputs": [
        {
          "name": "",
          "type": "uint256",
          "internalType": "uint256"
        }
      ],
      "stateMutability": "view"
    },
    {
      "type": "function",
      "name": "hasPaid",
      "inputs": [
        {
          "name": "",
          "type": "address",
          "internalType": "address"
        }
      ],
      "outputs": [
        {
          "name": "",
          "type": "bool",
          "internalType": "bool"
        }
      ],
      "stateMutability": "view"
    },
    {
      "type": "function",
      "name": "payDeploymentFee",
      "inputs": [],
      "outputs": [],
      "stateMutability": "payable"
    },
    {
      "type": "event",
      "name": "DeploymentFeePaid",
      "inputs": [
        {
          "name": "user",
          "type": "address",
          "indexed": true,
          "internalType": "address"
        },
        {
          "name": "amount",
          "type": "uint256",
          "indexed": false,
          "internalType": "uint256"
        }
      ],
      "anonymous": false
    }
  ],
  "bytecode": {
    "object": "0x6080604052348015600f57600080fd5b506040516102a63803806102a6833981016040819052602c916033565b600055604b565b600060208284031215604457600080fd5b5051919050565b61024c8061005a6000396000f3fe60806040526004361061003f5760003560e01c8063a543c52214610044578063bee42c4e1461004e578063f2cff57f1461009c578063fbf47a9a146100c0575b600080fd5b61004c6100f0565b005b34801561005a57600080fd5b506100876100693660046101e6565b6001600160a01b031660009081526001602052604090205460ff1690565b60405190151581526020015b60405180910390f35b3480156100a857600080fd5b506100b260005481565b604051908152602001610093565b3480156100cc57600080fd5b506100876100db3660046101e6565b60016020526000908152604090205460ff1681565b3360009081526001602052604090205460ff16156101445760405162461bcd60e51b815260206004820152600c60248201526b105b1c9958591e481c185a5960a21b60448201526064015b60405180910390fd5b60005434146101955760405162461bcd60e51b815260206004820152601860248201527f496e636f7272656374207061796d656e7420616d6f756e740000000000000000604482015260640161013b565b33600081815260016020818152604092839020805460ff191690921790915590513481527f0b21ef5df7049f46d25d994b1c1cc30d2af5d3cc7c67d87b346771120f5d2577910160405180910390a2565b6000602082840312156101f857600080fd5b81356001600160a01b038116811461020f57600080fd5b939250505056fea2646970667358221220f1856902ecf042d7d238b2131dc807fcd1782b2577232c17da871ed86a7fa13864736f6c634300081a0033",
    "linkReferences": {}
  },
  "methodIdentifiers": {
    "checkPaymentStatus(address)": "bee42c4e",
    "deploymentFee()": "f2cff57f",
    "hasPaid(address)": "fbf47a9a",
    "payDeploymentFee()": "a543c522"
  },
  "id": 20
}